{
  "_format": "hh-sol-artifact-1",
  "contractName": "CoinChanger",
  "sourceName": "contracts/coinChanger.sol",
  "abi": [
    {
      "inputs": [
        {
          "internalType": "uint256",
          "name": "amountDue",
          "type": "uint256"
        },
        {
          "internalType": "uint256",
          "name": "amountPaid",
          "type": "uint256"
        }
      ],
      "name": "changeReturn",
      "outputs": [
        {
          "internalType": "uint256[]",
          "name": "",
          "type": "uint256[]"
        }
      ],
      "stateMutability": "pure",
      "type": "function"
    }
  ],
  "bytecode": "0x608060405234801561001057600080fd5b50610575806100206000396000f3fe608060405234801561001057600080fd5b506004361061002b5760003560e01c80630986e6b114610030575b600080fd5b61004a6004803603810190610045919061022a565b610060565b6040516100579190610328565b60405180910390f35b6060818311156100a5576040517f08c379a000000000000000000000000000000000000000000000000000000000815260040161009c906103cd565b60405180910390fd5b600083836100b3919061041c565b90506000600467ffffffffffffffff8111156100d2576100d1610450565b5b6040519080825280602002602001820160405280156101005781602001602082028036833780820191505090505b50905060198261011091906104ae565b81600081518110610124576101236104df565b5b60200260200101818152505060198261013d919061050e565b9150600a8261014c91906104ae565b816001815181106101605761015f6104df565b5b602002602001018181525050600a82610179919061050e565b915060058261018891906104ae565b8160028151811061019c5761019b6104df565b5b6020026020010181815250506005826101b5919061050e565b91506001826101c491906104ae565b816003815181106101d8576101d76104df565b5b602002602001018181525050809250505092915050565b600080fd5b6000819050919050565b610207816101f4565b811461021257600080fd5b50565b600081359050610224816101fe565b92915050565b60008060408385031215610241576102406101ef565b5b600061024f85828601610215565b925050602061026085828601610215565b9150509250929050565b600081519050919050565b600082825260208201905092915050565b6000819050602082019050919050565b61029f816101f4565b82525050565b60006102b18383610296565b60208301905092915050565b6000602082019050919050565b60006102d58261026a565b6102df8185610275565b93506102ea83610286565b8060005b8381101561031b57815161030288826102a5565b975061030d836102bd565b9250506001810190506102ee565b5085935050505092915050565b6000602082019050818103600083015261034281846102ca565b905092915050565b600082825260208201905092915050565b7f416d6f756e742070616964206d7573742062652067726561746572206f72206560008201527f7175616c20746f20616d6f756e74206475652e00000000000000000000000000602082015250565b60006103b760338361034a565b91506103c28261035b565b604082019050919050565b600060208201905081810360008301526103e6816103aa565b9050919050565b7f4e487b7100000000000000000000000000000000000000000000000000000000600052601160045260246000fd5b6000610427826101f4565b9150610432836101f4565b925082820390508181111561044a576104496103ed565b5b92915050565b7f4e487b7100000000000000000000000000000000000000000000000000000000600052604160045260246000fd5b7f4e487b7100000000000000000000000000000000000000000000000000000000600052601260045260246000fd5b60006104b9826101f4565b91506104c4836101f4565b9250826104d4576104d361047f565b5b828204905092915050565b7f4e487b7100000000000000000000000000000000000000000000000000000000600052603260045260246000fd5b6000610519826101f4565b9150610524836101f4565b9250826105345761053361047f565b5b82820690509291505056fea264697066735822122075e2275596ed1d306a8d38438d4212f61d4a28b4f1b356930e8698576aeca2fd64736f6c63430008120033",
  "linkReferences": {},
  "deployedLinkReferences": {}
}